:1000000000060020C900000037010000E5040000E0
:1000100000000000000000000000000000000000E0
:100020000000000000000000000000003B01000094
:1000300000000000000000003D0100003F01000042
:10004000430100004B010000530100005B01000070
:10005000630100006B010000730100007B010000E0
:10006000830100008B010000930100009B01000050
:10007000A3010000AB010000B3010000BB010000C0
:10008000C3010000CB010000D3010000DB01000030
:10009000E3010000EB010000F3010000FB010000A0
:1000A000030200000B020000130200001B0200000C
:1000B00023020000C01C000000FEFF1F040000001F
:1000C00004FEFF1F2001000010B572B600F068FEAC
:1000D0000D4B07E0186859681C000C349A6800F052
:1000E00019F82300094A9342F4D306E018681C006B
:1000F0000834596800F017F82300054A9342F5D3F5
:1001000062B601F016FCFEE7B4000000C00000007B
:10011000C800000010B50023934203D210C810C1DC
:100120000433F9E710BD00238B4203D2002204C040
:100130000433F9E77047FEE7FEE7FEE7FEE7FEE778
:10014000FEE710B5FFF7FCFF10BD10B5FFF7F8FF95
:1001500010BD10B5FFF7F4FF10BD10B5FFF7F0FFAD
:1001600010BD10B5FFF7ECFF10BD10B5FFF7E8FFAD
:1001700010BD10B5FFF7E4FF10BD10B5FFF7E0FFAD
:1001800010BD10B500F098FB10BD10B5FFF7D8FFFB
:1001900010BD10B5FFF7D4FF10BD10B5FFF7D0FFAD
:1001A00010BD10B500F0C6FD10BD10B500F0D4FDB7
:1001B00010BD10B500F0E2FD10BD10B5FFF7C0FF97
:1001C00010BD10B5FFF7BCFF10BD10B5FFF7B8FFAD
:1001D00010BD10B5FFF7B4FF10BD10B5FFF7B0FFAD
:1001E00010BD10B5FFF7ACFF10BD10B5FFF7A8FFAD
:1001F00010BD10B5FFF7A4FF10BD10B5FFF7A0FFAD
:1002000010BD10B5FFF79CFF10BD10B5FFF798FFAC
:1002100010BD10B5FFF794FF10BD10B5FFF790FFAC
:1002200010BD10B5FFF78CFF10BDFFFFFFFFFFFFF4
:10023000FFFFFFFFFFFFFFFFFFFFFFFFFFFFFFFFCE
:10024000FFFFFFFFFFFFFFFFFFFFFFFFFFFFFFFFBE
:10025000FFFFFFFFFFFFFFFFFFFFFFFFFFFFFFFFAE
:10026000FFFFFFFFFFFFFFFFFFFFFFFFFFFFFFFF9E
:10027000FFFFFFFFFFFFFFFFFFFFFFFFFFFFFFFF8E
:10028000FFFFFFFFFFFFFFFFFFFFFFFFFFFFFFFF7E
:10029000FFFFFFFFFFFFFFFFFFFFFFFFFFFFFFFF6E
:1002A000FFFFFFFFFFFFFFFFFFFFFFFFFFFFFFFF5E
:1002B000FFFFFFFFFFFFFFFFFFFFFFFFFFFFFFFF4E
:1002C000FFFFFFFFFFFFFFFFFFFFFFFFFFFFFFFF3E
:1002D000FFFFFFFFFFFFFFFFFFFFFFFFFFFFFFFF2E
:1002E000FFFFFFFFFFFFFFFFFFFFFFFFFFFFFFFF1E
:1002F000FFFFFFFFFFFFFFFFFFFFFFFFFFFFFFFF0E
:10030000FFFFFFFFFFFFFFFFFFFFFFFFFFFFFFFFFD
:10031000FFFFFFFFFFFFFFFFFFFFFFFFFFFFFFFFED
:10032000FFFFFFFFFFFFFFFFFFFFFFFFFFFFFFFFDD
:10033000FFFFFFFFFFFFFFFFFFFFFFFFFFFFFFFFCD
:10034000FFFFFFFFFFFFFFFFFFFFFFFFFFFFFFFFBD
:10035000FFFFFFFFFFFFFFFFFFFFFFFFFFFFFFFFAD
:10036000FFFFFFFFFFFFFFFFFFFFFFFFFFFFFFFF9D
:10037000FFFFFFFFFFFFFFFFFFFFFFFFFFFFFFFF8D
:10038000FFFFFFFFFFFFFFFFFFFFFFFFFFFFFFFF7D
:10039000FFFFFFFFFFFFFFFFFFFFFFFFFFFFFFFF6D
:1003A000FFFFFFFFFFFFFFFFFFFFFFFFFFFFFFFF5D
:1003B000FFFFFFFFFFFFFFFFFFFFFFFFFFFFFFFF4D
:1003C000FFFFFFFFFFFFFFFFFFFFFFFFFFFFFFFF3D
:1003D000FFFFFFFFFFFFFFFFFFFFFFFFFFFFFFFF2D
:1003E000FFFFFFFFFFFFFFFFFFFFFFFFFFFFFFFF1D
:1003F000FFFFFFFFFFFFFFFFFFFFFFFFFFFFFFFF0D
:10040000FFFFFFFFFFFFFFFFFFFFFFFFFFFFFEFFFD
:1004100080B582B000AF78600A00FB1C1A70FB1C2C
:1004200013480122190000F005FC4222FB1C1B7836
:100430009A4218D1FB1C0E480122190000F0FAFB69
:100440004D22FB1C1B789A420DD17B6842221A7008
:100450007B6801334D221A707B68023304482022E6
:10046000190000F0E7FBC046BD4602B080BDC046A3
:1004700000A0064080B582B000AF01F053FA01F051
:1004800038FA01F048FA3B00114A11681960918866
:10049000998092799A710F4B1A780F4B11001800BE
:1004A000FFF7B6FF0D4A0C4B1100180001F0F8F8E9
:1004B0000300012B05D1094A074B1100180001F078
:1004C00042F9054B06482022190001F0E8F9E2E75D
:1004D000AC1A000020FFFF1F04FEFF1F24FEFF1FB9
:1004E00000B0064004207146084202D0EFF30980B4
:1004F00001E0EFF3088081690A88054B9A4200D039
:10050000FEE702318161202101607047C046000092
:10051000ABBE000080B582B000AF7860094A7B684E
:100520001B689361074B59687B681B791A04E023A9
:10053000DB021A40034B0A435A60C046BD4602B074
:1005400080BDC0460080044080B582B000AF02008C
:10055000FB1D1A70224B1B78DBB2214A04210B438E
:10056000DBB213701E4B1B78DBB21D4A3F210B40E0
:10057000DBB213701A4B5B78DBB21F221340DAB286
:10058000FB1D1B785B01DBB215491343DBB24B70DB
:10059000C046134B1B79DBB21B0901221340012B10
:1005A000F7D1C0460E4B1B79DBB29B0803221340E8
:1005B000F8D1C0460A4B1B79DBB21A004023134026
:1005C000F8D0074B1B79DBB2054980225242134316
:1005D000DBB20B7100231800BD4602B080BDC046DF
:1005E0000040064080B584B000AF78607B681B0C8B
:1005F000084A94466344FB60FB6819687B681B04E7
:100600001B0C01229A40FB680A431A60C046BD4693
:1006100004B080BD0080044080B584B000AF786035
:100620000023FB6006E00C4A7B68934206D0FB681F
:100630000133FB60FB68002BF5D000E0C046FB688F
:10064000002B03D0054B180000F05EFCFB6818007F
:10065000BD4604B080BDC04600600640341B0000AB
:1006600080B584B000AF786039600F217B187A685C
:10067000D2781A700E203B187A6892781A703B185C
:100680001B782022134004D17B181B7810221340C2
:1006900006D0094B1B6839687A681000984705E056
:1006A000064B1B6839687A6810009847BFF34F8F74
:1006B000C046BD4604B080BD48FEFF1F4CFEFF1F74
:1006C00080B586B000AFF860B9607A60BB68002B77
:1006D00003D1374B180000F017FC7B68002B03D1C7
:1006E000344B180000F010FCFB681800FFF794FF73
:1006F000314B1800FFF776FFFB6800221A70FB6889
:1007000000225A70FB6800229A70FB68FF22DA70A0
:10071000FB6800225A71FB6850229A71FB68002224
:10072000DA71FB689B78DBB27F221340DAB2FB6898
:100730009A70224AFB681100180001F071F8BB683A
:1007400059687A68FB68180000F03AF817203B18DF
:10075000FA6892791A703B183A1812787F210A4089
:100760001A70BB685B78DB01D9B23B183A18127873
:100770000A431A703B183A1812780F218A431A70EC
:10078000BB681B7A0F221340D9B23B183A18127873
:100790000A431A70FB683A1812789A71BB681B7882
:1007A000DB01DAB2FB689A70C046BD4606B080BD78
:1007B000681B0000901B000011000C00125000008C
:1007C00080B58CB000AFF860B9607A6001235B42FD
:1007D000FB620023BB6200237B620123FB612323B6
:1007E000FB1800221A704DE0FB6A002B50D0232327
:1007F000FB181B78FA699A401300BB612223FB188F
:1008000000221A7031E02223FB181A78294B52007B
:10081000D35A1A00BB6953431900786801F0CCF829
:1008200003007B61BA687B699A4203D9BA687B6925
:10083000D31A02E07A69BB68D31A3B613A69FB6A52
:100840009A420CD22323FB181B78BB622223FB188D
:100850001B787B623B69FB623B69002B0BD0222239
:10086000BB18BA18127801321A702223FB181B78B1
:100870003F2BC8D900E0C0462322BB18BA18127813
:1008800001321A702323FB181B78022BACD900E02D
:10089000C046BB6ADBB29B01DAB27B6ADBB23F21A6
:1008A0000B40DBB21343DAB2FB685A70C046BD4658
:1008B0000CB080BDB41A000080B500AF044B1B68BB
:1008C000044A19001000FFF7CBFEC046BD4680BDAC
:1008D00044FEFF1F0060064080B582B000AF0200FA
:1008E000BB1D1A807B1D0A1C1A707B1D1B78002BF8
:1008F00013D0BB1D1B88082B07D9144B9968BB1D4F
:100900001A88124B0A439A601CE0104B5968BB1DB1
:100910001A880E4B0A435A6014E0BB1D1B88082B33
:1009200008D90A4B9A68BB1D1B88D943074B0A405C
:100930009A6007E0054B5A68BB1D1B88D943034BDF
:100940000A405A60C046BD4602B080BD00800440E7
:1009500080B584B000AF78607B681B0C084A944671
:100960006344FB60FB6819687B681B041B0C012255
:100970009A40FB680A431A60C046BD4604B080BD79
:100980000080044080B584B000AF78600323BB6072
:100990000023FB6009E00E4BFA689200D3587A6896
:1009A0009A4207D0FB680133FB60FA68BB689A4241
:1009B000F1D300E0C046FA68BB689A4203D3054B06
:1009C000180000F0A1FAFB681800BD4604B080BD15
:1009D000B41B0000CC1B000090B589B000AFF860DC
:1009E000B9607A60BB68002B03D16F4B180000F030
:1009F0008BFABB681B68002B03D16C4B180000F00E
:100A000083FA0023FB611B23FB1800221A700023CA
:100A10007B61BB681B681B011900786800F0CCFF84
:100A20000300FB61FB69002B01D10123FB61FB6922
:100A30001B011900786800F0BFFF03001A00BB68B3
:100A40001B68D31A7B61BB681C68FB6901331B01FF
:100A50001900786800F0B0FF0300E31A7A699A423F
:100A60000ED9BB681C68FB6901331B01190078684B
:100A700000F0A2FF0300E31A7B61FB690133FB6115
:100A8000BB681B686421180000F096FF03001A0081
:100A900013005B009B187A699A4201D9444B7FE0AE
:100AA000FB681800FFF76EFF0200424B9200D3581C
:100AB0001800FFF74DFFFB68DB78DBB20C22934395
:100AC000DAB2FB68DA70FB681B78DBB25BB21F221C
:100AD00093435AB2FB691B0A5BB213435BB2DAB2AF
:100AE000FB681A70FB69DAB2FB685A70FB689B7886
:100AF000DAB21B203B1817218A431A70BB689B7916
:100B00009B00DBB204221340D9B23B183A1812788A
:100B10000A431A70BB681B79002B09D0BB681A798D
:100B20003B181B781343DAB23B1810210A431A70A2
:100B3000FB681B203A1812789A70FB681B78DBB2AE
:100B40005BB2202293435AB2BB685B795B01DBB294
:100B50005BB220210B405BB213435BB2DAB2FB689D
:100B60001A703B18FA68D2781A70BB68DB79002BD0
:100B700005D03B183A18127808210A431A70BB684E
:100B80001B7A002B06D01B22BB18BA18127804213E
:100B90000A431A70FB681B22BA181278DA70002315
:100BA0001800BD4609B090BDF81B0000141C0000E1
:100BB000F5030000C01B000080B584B000AF786072
:100BC00039600B203B187A6852791A703B183A1832
:100BD00012783F210A401A703B681B0ADAB23B18B0
:100BE0001B781343DAB27B685A713B6817221340B3
:100BF00003D07B681B797B68DB793B680822134054
:100C000003D07B681B797B68DB797B68180000F078
:100C100032FE02003B68134002D0054BFB6001E04E
:100C20000023FB60FB681800BD4604B080BDC046D1
:100C3000EE03000080B586B000AFF860B9607A605E
:100C4000BB68002B03D1364B180000F05DF9002380
:100C50007B6159E0FB68180000F00DFE03003B616A
:100C60003B69082213400BD0FB6808211800FFF7EE
:100C7000A3FF031E01D12B4B00E02B4B7B6139E01E
:100C80003B69012213400BD0FB6801211800FFF7DC
:100C900093FF031E02D1FD239B0000E0224B7B61EA
:100CA0003B69022213400AD0FB6802211800FFF7BB
:100CB00083FF031E01D11D4B00E01B4B7B613B6991
:100CC000042213400AD0FB6804211800FFF774FFC8
:100CD000031E01D1164B00E0134B7B617B69002B97
:100CE00007D1FB681B79DBB21A0020231340B1D077
:100CF00000E0C0467B69002B0CD1BB685A1CBA606F
:100D0000FA68D279D2B21A707B685A1E7A60002BC8
:100D1000E7D100E0C0467B691800BD4606B080BD43
:100D20003C1C0000F1030000EE030000F303000090
:100D3000F203000080B500AF044B1A68044B1B6837
:100D4000044819009047C046BD4680BD5CFEFF1FA9
:100D500050FEFF1F00A0064080B500AF044B1A688C
:100D6000044B5B68044819009047C046BD4680BDEF
:100D70005CFEFF1F50FEFF1F00B0064080B500AFB5
:100D8000044B1A68044B9B68044819009047C046FE
:100D9000BD4680BD5CFEFF1F50FEFF1F00C0064029
:100DA00080B500AF0F4B104A5A800E4B0F4A5A8045
:100DB0000C4B012252429A800A4B1B78DBB25F2215
:100DC0001340DBB2074A20210B43DBB21370054A04
:100DD000044B5278D2B25A7000F086FDC046BD4630
:100DE00080BDC04600200540C5200000D928000075
:100DF00080B500AF024B01229A61C046BD4680BD5E
:100E00000080044080B582B000AF0200FB1D1A7064
:100E1000074B1B78DBB203229343DAB20449FB1D74
:100E20001B781343DBB20B70C046BD4602B080BDD9
:100E30000040064080B500AFFFF7DAFF012318003D
:100E400000F0DEFC00231800FFF7DCFF044B180065
:100E5000FFF760FB034B044A1A60C046BD4680BDE5
:100E60005C1C000000FEFF1F0024F40080B500AFF2
:100E7000044A054B05481900FFF722FCC046BD4651
:100E800080BDC0460024F400641C000000600640E1
:100E900080B500AF044A054B05481900FFF79CFDDB
:100EA000C046BD4680BDC0460024F400701C000052
:100EB00000A0064080B500AF044A054B0548190064
:100EC000FFF78AFDC046BD4680BDC0460024F40041
:100ED0007C1C000000B0064080B500AF012120203E
:100EE000FFF7FAFC00218020FFF7F6FC044B5A685C
:100EF000034B04490A405A60C046BD4680BDC04607
:100F000000800440FFDFFFFF70B505000E4C0F4866
:100F1000210000F02EFD2100280000F02AFD0C4ADF
:100F2000111DCB6F013BCB67002B07DB936F591C67
:100F300091670A221A7000F00DF870BD21000A2096
:100F400000F02EF8F7E7C046D8FEFF1F8C1C00000B
:100F500060FEFF1F18200149ABBE7047260002004B
:100F6000202310B50400C2689A43E2608369826A54
:100F700093420CD000F0BAF8E368074A1A401023F5
:100F80001343E360A36AA3612369E3622360E26819
:100F9000024B1340E36010BDEFCFFFFFBFBFFFFF69
:100FA000F8B5CA684E4B050013400C00CB609306A1
:100FB00002D50800FFF7D4FFA268E668531C0FDAD9
:100FC000B3050DD402235B429B1AA36090235B02FE
:100FD0001E432368E6605A1C22601D70E8B20AE0D6
:100FE000404A3240022A07D00023A36080331E43C8
:100FF000E66001204042F8BD80213B4B09023340AE
:101000008B420AD10021200000F048F9E3689B06DA
:1010100002D52000FFF7A4FFE6689023F0225B02D0
:1010200033431201E360164210D1606900F01FFDE6
:10103000002820D073051ED52300243323612360AC
:101040000123E36192235B023343E36090210901B2
:10105000226826690B4224D0E16A8A4200D9110035
:10106000891B17D1731CE3622360E3695A1EA260D7
:1010700023633570B2E780277F00380000F0FEF868
:101080009423E2685B0233431A4320612060E761E6
:10109000E260DBE72200300000F056F80028E1D0E3
:1010A000A7E7511CE8B221601070E26A21688A4209
:1010B00000D91100E269891B22635B0504D40A2868
:1010C00002D08A4200DD89E70023E6622660A36041
:1010D0002200300000F038F8002800D089E77DE7D2
:1010E000FFFFF7FF8A10000010A0000070B5040099
:1010F00005690168C26A124BC0680340E36082233D
:101100000340022B02D00120404270BD80235B02CD
:101110001840FAD0914200D211008D4208D100202F
:10112000E268084BE56213402560A060E360ECE7ED
:10113000491B2200280000F007F80028EFD0E2E762
:10114000FFFFF7FFFFFFFEFFF7B5D56801900E0028
:1011500014005769EB0205D5102338001D4300F039
:1011600080FCA061104B1D420FD0A169380000F037
:101170008AFC002806DA80230120E26840421343FB
:10118000E3600FE0094B1D40E56032000199380033
:1011900000F085FC43005B08F61AA3699E19A6615E
:1011A0000028E8D1FEBDC04610000200EFFFFDFFA1
:1011B000F7B50027304EC51C3468AD08B84214D0CE
:1011C0002900EB1C9C460A310191002C0FD10C30F8
:1011D00000F064F9431C08D080239B050360456040
:1011E0008460002F46D130601EE00020FEBD8022CA
:1011F0002368520593423AD1A7686368002F0BD049
:1012000080213A6849058A4206D17A680333D318A7
:101210006360BB68A360EFE7AB4207DB9C4505DB7F
:1012200080239B05236020000C30DFE7019A934266
:1012300010D9802220008021920522600C30AA0063
:101240005B1B82184905033B6560A2601160536017
:101250009760CBE7002F0AD19B00C01A00F01EF95F
:10126000431CC2D080239B0523606560DBE7270019
:10127000A468AAE7B860D7E718FFFF1F10B5FFF70B
:1012800097FF041E05D11722034900F008FCFFF761
:1012900061FE200010BDC046A11C0000F7B5394B0F
:1012A000C56804000E0000921D4202D102273800DA
:1012B000FEBD43691800019300F0D9FB071EF5D16C
:1012C000009B012B05D0022B2CD0002B05D0023720
:1012D000EDE7200000F05AF83618002EE6DBAB04EC
:1012E00004D52368E26A9A4200D2E362A069B04260
:1012F0000EDCE26A2368934200D2130022691918B7
:101300000092891AB14203DB216B4218B24228DCF9
:1013100020231D430023A662A36063601A4B1D4077
:10132000E560C4E7019800F09CFBE268002804DA5D
:1013300080231343E3600127B9E7E16A23689942F8
:1013400000D90B00A1695B1821695B1A920603D5CD
:10135000A26A934200DA1300834200DA0300F6180F
:10136000BBE7361AAA0701D5711AA160EA0703D5AF
:10137000009A9B1AF31A6360009B9E192023266033
:101380009D43CBE703001000BFCFF7FFC268930770
:1013900005D1212201200E4B40421A6070472023C4
:1013A000134012030AD5002B02D0806A0138F5E7FA
:1013B0000368826900699B18181AF7E7002B01D0AF
:1013C000806AEBE70368826900699B18181AE5E7F1
:1013D0001CFFFF1F37B5184C18492200002000F0F1
:1013E0007DF8802380225B00D2000021200000F0E5
:1013F0002FF8134C134D22002900012000F06EF845
:10140000802380225B00D2000021200000F020F821
:101410000D4B1B680193022B0DDD0C4C29002200A3
:10142000022000F05BF8802380225B00D2000021C4
:10143000200000F00DF837BD60FEFF1FB91C000052
:101440009CFEFF1FBB1C0000881C0000D8FEFF1F75
:10145000F0B5C5680124AE070CD08024A400A242D8
:1014600014D08024E400A24206D080246400A2426A
:101470000CD0FF3C2000F0BD0100012324311543B6
:1014800001610160C361C5600024F3E7024F5E1E85
:101490000124BE42F3D9EDE7FEFFFF0070B50C4D0D
:1014A0002B68002B01D10B4B2B600323C41C2E682F
:1014B0009C433419200000F0C7F8002802D12C60AA
:1014C000300070BD0C220126034B76421A60F7E70C
:1014D00014FFFF1F24FFFF1F1CFFFF1FF7B50D00A8
:1014E00001901000140000F033F82B78722B1CD000
:1014F000772B1DD0612B26D1144A593B0220691C41
:10150000032784460426012508782B2813D0622857
:1015100016D0E260019A62611B0704D50222002105
:101520002000FFF7BBFE2000FEBD00230122E5E7FF
:1015300004230222E2E760463A4303430131E3E732
:1015400032432B43FAE70024EDE7C0460280000057
:10155000F0B5C46889B00500A30722D0230718D4CA
:101560004769066900F022F8380000F074FA230594
:1015700002D5300000F0E7F90B4BA40DA4059C4206
:1015800007D12022296A684600F083FA684600F0F5
:1015900007FA3C220021280000F0D1F9002009B010
:1015A000F0BD01204042FAE7000080AD73B500288D
:1015B00013D000F053F80500280076BD30006043DA
:1015C000094BC01800F04AF8002801D001256D42EF
:1015D0000134019BA342F1DCEEE7044B04001B68DD
:1015E000050001933C26F4E760FEFF1F881C000005
:1015F000032310B5411C0200184217D1104C136888
:10160000104818189843204217D0DCB2501C002C08
:1016100011D0FF242402901C23420CD0FF20000490
:101620000340581E8341D318D81C04E00130421EE9
:101630001278002ADFD1401A10BD0432DFE7C0461D
:1016400080808080FFFEFEFE034B0200181E02D049
:1016500000209A4240417047A4FFFF1F70B5032647
:10166000C36804001E4011D09B0611D5856AFFF7A0
:1016700077FCE268094B20001340E360FFF736FD7A
:101680000022060029002000FFF708FE300070BD90
:10169000036882699D180369ED1AEAE7FFCFFFFF2F
:1016A00080B584B000AF786039607B6802331B7806
:1016B0009BB21B029AB27B6803331B789BB2D31890
:1016C0009AB23B681A807B681E331B789BB21B0260
:1016D00099B27B681F331B789AB20A23FB188A18C9
:1016E0001A800E23FB1800221A800D217B1800227D
:1016F0001A707B1800221A7011E00D203B181B781D
:101700007A68D3181B7899B20E22BB18BA181288BF
:101710008A181A803B181A783B1801321A700D2368
:10172000FB181B781D2BE8D90E23FA180A23FB1887
:1017300012881B889A4201D1012300E0002318007F
:10174000BD4604B080BD80B582B000AF786039601E
:101750007B6804331B789BB21B029AB27B6805330B
:101760001B789BB2D3189AB23B685A807B680633C9
:101770001B789BB21B029AB27B6807331B789BB223
:10178000D3189AB23B689A807B6808331B789BB267
:101790001B029AB27B6809331B789BB2D3189AB2AA
:1017A0003B68DA807B680A331B789BB21B029AB2D3
:1017B0007B680B331B789BB2D3189AB23B681A81B3
:1017C0007B680C331B789BB21B029AB27B680D338B
:1017D0001B789BB2D3189AB23B685A817B680E3350
:1017E0001B789BB21B029AB27B680F331B789BB2AB
:1017F000D3189AB23B689A81C046BD4602B080BDFC
:1018000080B582B000AF0200FB1D1A70FB1D1B7873
:101810001800FEF799FE03001800BD4602B080BD17
:1018200080B582B000AF786039603A6880235B0190
:10183000134009D07B689B79DAB23B681B0ADBB2A4
:101840001343DAB27B689A713A688023DB01134054
:1018500009D07B689B79DAB23B681B0ADBB2134381
:10186000DAB27B689A713B68DAB27B68DA70C0469C
:10187000BD4602B080BD80B584B000AF78607B68A3
:101880001B79DBB2FB607B685B79DBB21B02FA6819
:101890001343FB60FB681800BD4604B080BD80B5F3
:1018A00084B000AFF860B9607A600CE0C046FB68B5
:1018B0001B79DBB25BB2002BF9DABB685A1CBA6049
:1018C0001A78FB68DA717B685A1E7A60002BEDD1BA
:1018D000C046FB681B79DBB21A0040231340F8D0E6
:1018E000C046BD4604B080BD80B500AFC046BD4611
:1018F00080BD80B500AFFFF79DFAC046BD4680BDF4
:1019000080B500AFFFF7B2FAFFF7C2FAFFF7D2FADD
:10191000C046BD4680BD80B500AFFFF7F1FFC046B1
:10192000BD4680BD80B500AFFFF7D6FAC046BD46C4
:1019300080BD10B5FFF74EFDFEF79CFD10BD10B544
:1019400000F074F810BD10B5002811D080210C38BB
:10195000490501608268002A0AD013688B4207D1CA
:101960004368546803331B19436093688360F1E74D
:1019700010BD70B50D000400207800280FD0AB68B2
:10198000013BAB60002B05DB2B685A1C2A601870EA
:101990000134F1E72900FFF703FB431CF8D170BDC8
:1019A00010B50400FFF724FE0100200000F065F8E8
:1019B00010BD03000B4321D4002931D00122D207EE
:1019C000030901E0090112099942FBD9430801E02A
:1019D000490052089942FBD900E04908401A07D350
:1019E0005241FAD301461046704749084018F7D2D1
:1019F0009218FAD34018014610467047CB0F00D01A
:101A00004942021000D54042534008B5FFF7D4FFC9
:101A10000CBC521000D34042002A00D5494218475E
:101A2000F446002000F001F8604770478446043A0D
:101A300009D3830707D109060B0A19430B0C194375
:101A4000043A02C0FCD2043203D001700130013AE2
:101A5000FBD16046704703B469460220ABBE02B0BA
:101A6000704703B469460C20ABBE02B0704703B4A4
:101A700069460920ABBE02B0704703B469460E2028
:101A8000ABBE02B0704703B469460A20ABBE02B0D9
:101A900070470FB469460D20ABBE04B070470FB459
:101AA00069460520ABBE04B07047FFFF424DE10020
:101AB000000170FF1400160018001A001C001E0020
:101AC000220028001C002000240028002C003000E8
:101AD00038004400300038004000480050005800F2
:101AE0006800800050006000700080009000A0003E
:101AF000C000F000A000C000E00000012001400193
:101B00008001E00140018001C0010002400280022A
:101B10000003C0038002000380030004800400056A
:101B20000006800700050006000700080009000AFB
:101B3000000C000F2E66736C5F6932632E633A31BE
:101B40003539203A20696E7374616E6365203C20DC
:101B500041525241595F53495A4528735F69326374
:101B600042617365732900FF2E66736C5F6932638F
:101B70002E633A353636203A204E554C4C20213DC6
:101B8000206D6173746572436F6E66696700000053
:101B90002E66736C5F6932632E633A353637203AAE
:101BA00020305520213D20737263436C6F636B5F5F
:101BB000487A00FF00A0064000B0064000C0064082
:101BC00014000C0015000C0016000C002E66736C3F
:101BD0005F756172742E633A313435203A20696E34
:101BE0007374616E6365203C20756172744172721A
:101BF0006179436F756E74002E66736C5F756172E8
:101C0000742E633A323138203A20636F6E6669670A
:101C1000000000002E66736C5F756172742E633A6B
:101C2000323139203A20636F6E6669672D3E6261FA
:101C30007564526174655F42707300FF2E66736C49
:101C40005F756172742E633A373630203A206461D2
:101C5000746120213D204E554C4C000000000000D6
:101C60000000000001000000A0860100000000004C
:101C70008025000000000001010000008025000018
:101C80000000000101000000030000002A2A2A20B1
:101C9000617373657274206661696C6564203A20B3
:101CA000002A2A2A205F437379735F616C6C6F632B
:101CB000206661696C65640A0072007700FFFFFFAF
:041CC000000000011F
:04000003000000C930
:00000001FF
